:1000000002000375810712008DE58260030200572C
:10001000780079007A007B007C007D00EC4D601C4C
:1000200088828983E493A3A882A9838A828B83F040
:10003000A3AA82AB831CBCFFE31D80E07582007520
:1000400083007C007D00EC4D600AE4F0A31CBCFF43
:10005000F51D80F212005C12008180FE227A007B86
:1000600000C3EA9464EB6480948050147CE87D03C0
:100070001CBCFF011DEC4D70F70ABA00E40B80E1D7
:1000800022C2A112005DD2A112005D80F47582002F
:10009000220000000000000000000000000000003E
:00000001FF
