:1000000002000375811112014BE582600302005763
:10001000780079007A007B007C007D00EC4D601C4C
:1000200088828983E493A3A882A9838A828B83F040
:10003000A3AA82AB831CBCFFE31D80E07582007520
:1000400083007C007D00EC4D600AE4F0A31CBCFF43
:10005000F51D80F212005C12013F80FE75087F756D
:100060000901750A01750B00750C00750D00227AE7
:10007000007B00C3EA9464EB6480948050147CE8B5
:100080007D031CBCFF011DEC4D70F70ABA00E40BA8
:1000900080E12222E582C313FAE510C313FBEAC311
:1000A0009BF50C23540130E00244FEFA3395E0FB4B
:1000B000EAF4FAEBF4FBEA30E0128509F0E50CA46F
:1000C000FAE508C39AF50E85080F800E85080E859F
:1000D00009F0E50CA4FA2508F50FE50CA2E713FAE0
:1000E000E50BA2E713FBEAC39BF50D23540130E0B7
:1000F0000244FEFA3395E0FBEAF4FAEBF4FBEA3053
:10010000E00F850AF0E50DA4FAE50EC39AF50E801E
:100110000B850AF0E50DA4FA250FF50FE50E235423
:1001200001FA6003750E00E50F235401FA600375B0
:100130000F00850F11850E82120093850C0B22C2D1
:10014000A112006FD2A112006F80F475820022000C
:00000001FF
