:1000000002000E22000000000000000201D77581EE
:1000100014120439E5826003020062780079007AE4
:10002000007B007C007D00EC4D601C88828983E4AD
:1000300093A3A882A9838A828B83F0A3AA82AB832D
:100040001CBCFFE31D80E07582007583007C007D91
:1000500000EC4D600AE4F0A31CBCFFF51D80F21219
:1000600000031201FC80FEC28C74F055894401F536
:10007000897594FE759290D28CD2A9D2AF22AA82B1
:10008000C2EF8AEA30EFFD22AA82D2EA75E95FC2A6
:1000900094758201C00212007ED002EAC454F0FAC4
:1000A00074804AF58212007E740355EAFB7A00756B
:1000B0008255C002C00312007ED003D002ACEA7D9C
:1000C00000EC2AFAED3BFBD2948A828B8322AA822F
:1000D0007B007C007D007E00C3ED940AEE6480947A
:1000E00080502A8A82C002C003C004C005C0061224
:1000F0000088AF82A883D006D005D004D003D002F8
:10010000EF2BFBE83CFC0DBD00CE0E80CB75130A37
:10011000E4F5148B828C830202447582001200CEB7
:1001200085820B85830C7582011200CE85820D8538
:10013000830EE50BC3950DF50FE50C950EF51085B7
:100140000F82851083120321AA82AB83ACF0FDC01D
:1001500002C003C004C00590000075F06074401236
:10016000026DAA82AB83ACF0FDE58124FCF5818AA7
:10017000828B838CF0ED120210858211858312C36D
:10018000E4950FE464808510F063F08095F0501ED4
:10019000C3E5119464E512648094805009AA117437
:1001A00064C39AFA80027A008A09750A6422C3E459
:1001B0009511F511E49512F512750964C3E51194D2
:1001C00064E512648094805009AA117464C39AFA99
:1001D00080027A008A0A22C0E0C0D075D0000508EB
:1001E000E508249C5003750800C3E5089509929022
:1001F000C3E508950A9291D0D0D0E03290FFFE126C
:100200000310120067750900750A0012011A80FBBD
:1002100012032E700AE582458345F0700122E43016
:10022000D112F4700BE5F0F47006E58330E701229B
:1002300090800022700AE5F07006E58320E7012235
:10024000907FFF227A10E4FBFCE58225E0F582E551
:100250008333F583EB33FBEC33FCEB9513F5F0ECD8
:1002600095144006FCABF0438201DADD2212040B48
:10027000BC00030203AAEF60FA30D502B2D1E583D5
:10028000B4FF030203C0E582B4FF030203C0258369
:1002900040072482400B0203AA2483145003020364
:1002A000C0F582EA8DF0A4A8F0EA8EF0A428F8E464
:1002B00035F0F9EB8DF0A428E935F0F9E433CA8F75
:1002C000F0A429F9EA35F0FAEBF88EF0A429F9EA5E
:1002D00035F0FAE433FBEC8DF0A429F9EA35F0FAB5
:1002E000E43BFBE88FF0A42AFAEB35F0FBE433CCD7
:1002F000FD8EF0A42AFAEB35F0FBE43CFCED8FF028
:10030000A42BFBEC35F0FC20E7031203D802038991
:10031000AA82AB838B048CCB8ACA75C83475985279
:1003200022AC83AB827A007900748E0204461204F8
:100330006AC3749E95824039790012047C30D126BC
:10034000E9F42401F582EAF43400F583EBF4340097
:10035000F5F0ECF43400700AE582458345F0700155
:1003600022E430E70F22EC20E71489828A838BF0A5
:100370002230D10AE4F582F583F5F074802274FF0F
:10038000F582F583F5F0747F22B98003EA13B34058
:1003900010EA2401FAE43BFBE43CFC50047C8005B9
:1003A00082BC000EBB000BBA0008E4F5F0F583F543
:1003B0008222A2D1E582138CF092F78B838A82226B
:1003C000E4F583F58275F080F4A2D11322E4F5837D
:1003D000F58275F0C0747F227804EC7011E58224F8
:1003E000F8500AF582E4C9CACBFCD8EF22EC782099
:1003F000058220E713D5820122C3E933F9EA33FAF3
:10040000EB33FBEC33FCD8EA158222AA82AB83A241
:10041000F73392D16002D2F7F582ACF0E58124F98E
:10042000F8E6FD08E6FE0886F008E6A2F73392D566
:100430006002D2F7F583AFF02275820022FCABF0A8
:10044000AA83A982749EF582C2D1EC30E716D2D17C
:10045000E9F42401F9EAF43400FAEBF43400FBEC9B
:10046000F43400FC1203D8020389AA82AB83A2F7FA
:100470003392D16002D2F7F582ACF0226040F825C9
:1004800082500274FFF582E824F8501ECCCBCAF9E2
:10049000E4CC24F85014CBCAF9E4CB24F8500BCAAE
:1004A000F9E4CA24F8500379002224086010F8C344
:1004B000EC13FCEB13FBEA13FAE913F9D8F1220071
:00000001FF
