:1000000002000E0004E4F51EF51F22020275758140
:1000100023120616E5826003020062780079007AF6
:10002000007B007C007D00EC4D601C88828983E4AD
:1000300093A3A882A9838A828B83F0A3AA82AB832D
:100040001CBCFFE31D80E07582007583007C007D91
:1000500004EC4D600AE4F0A31CBCFFF51D80F21215
:10006000000512029A80FEC28C74F055894401F595
:10007000897594FE759290D28CD2A9D2AF22AA82B1
:10008000C2EF8AEA30EFFD22AA82D2EA75E95FC2A6
:1000900094758201C00212007ED002EAC454F0FAC4
:1000A00074804AF58212007E740355EAFB7A00756B
:1000B0008255C002C00312007ED003D002ACEA7D9C
:1000C00000EC2AFAED3BFBD2948A828B8322AA822F
:1000D000AB831ABAFF011BEA4B70F722758200123C
:1000E000008885820B85830C7582011200888582C9
:1000F0000D85830EC3E50D950BE50E950C50077528
:100100000900750A6422750964750A002290005A74
:100110000203FB858215858316851522851623909B
:1001200000031203851203FBAC82AD838C178D187C
:10013000751900E5132513FFE51433F8E4F51AF5F6
:100140001BF51CF51DC3E51A9515E51B6480851686
:10015000F063F08095F05056E51C2517FBE51D3542
:1001600018FCAD198F828883C003C004C005C00786
:10017000C0001203FBAE82AA83D000D007D005D006
:1001800004D00379008B828C838DF0EE1204D4A30B
:10019000EA1204D4A3E91204D47403251CF51CE468
:1001A000351DF51D051AE4B51A9B051B80978517AB
:1001B000828518838519F022758200120088858255
:1001C0000B85830C75820112008885820D85830E54
:1001D000E50BC3950DF50FE50C950EF510850F8217
:1001E0008510831204FEAA82AB83ACF0FDC002C06E
:1001F00003C004C00590000075F080743E1202E256
:10020000AA82AB83ACF0FDE58124FCF5818A828B68
:10021000838CF0ED1202AE858211858312C3E495C2
:100220000FE464808510F063F08095F0501EC3E504
:10023000119464E512648094805009AA117464C317
:100240009AFA80027A008A09750A6422C3E4951139
:10025000F511E49512F512750964C3E5119464E58E
:1002600012648094805009AA117464C39AFA8002BF
:100270007A008A0A22C0E0C0D075D0000508E508DF
:10028000249C5003750800C3E50895099290C3E5C6
:1002900008950A9291D0D0D0E03290FFFE1204ED82
:1002A000120067750900750A001200DC80FB120558
:1002B0000B700AE582458345F0700122E430D112CB
:1002C000F4700BE5F0F47006E58330E701229080CE
:1002D0000022700AE5F07006E58320E70122907F96
:1002E000FF221205E8BC0003020587EF60FA30D553
:1002F00002B2D1E583B4FF0302059DE582B4FF039A
:1003000002059D258340072482400B020587248334
:1003100014500302059DF582EA8DF0A4A8F0EA8E40
:10032000F0A428F8E435F0F9EB8DF0A428E935F0D5
:10033000F9E433CA8FF0A429F9EA35F0FAEBF88E24
:10034000F0A429F9EA35F0FAE433FBEC8DF0A429A6
:10035000F9EA35F0FAE43BFBE88FF0A42AFAEB3532
:10036000F0FBE433CCFD8EF0A42AFAEB35F0FBE48D
:100370003CFCED8FF0A42BFBEC35F0FC20E70312E6
:1003800005B5020566E5828522F0A4C582C0F08528
:1003900023F0A4D0F025F0C5838522F0A42583F5B1
:1003A00083227A007B00900003E493FC740193FDA8
:1003B000EA4B700A0ABA00010B1CBCFF011D8A1E21
:1003C0008B1F851E82851F83EC2AFAED3BFBEA24F6
:1003D000FEFAEB34FFFBEAF0A3EBF0851E82851FEB
:1003E00083E0FAA3E0FB8A828B83E4F0A3F0851E0E
:1003F00082851F83A3A3E4F0A3F022858220858356
:1004000021C374FB952074FF9521500490000022B5
:1004100074042520F520E43521F521E51E451F70E3
:10042000031203A2AC1EAD1F8C828D83E0FEA3E0FD
:10043000FF8E008F018C028D03E8C39AF8E99BF9C7
:100440008C828D83A3A3E0FAA3E0FBE8C39AF8E9CA
:100450009BF9C3E89520E99521400974042CFAE43E
:100460003DFB80128E048F058C828D83E0FEA3E01D
:10047000FF4E70B4FAFBEA4B605574022CFEE43D6B
:10048000FF8E828F83E0F8A3E0F948700D8E828F93
:1004900083E520F0A3E521F08035E82CF8E93DF96B
:1004A0008C828D83E0FEA3E0FF88828983EEF0A337
:1004B000EFF08C828D83E8F0A3E9F088828983A332
:1004C000A3E520F0A3E521F0740428FAE439FB8ABF
:1004D000828B832220F71030F6118883A88220F5C2
:1004E00007F6A88375830022F280F7F022AA82AB78
:1004F000838B048CCB8ACA75C83475985222AC831E
:10050000AB827A007900748E020623120647C37408
:100510009E95824039790012065930D126E9F4249B
:1005200001F582EAF43400F583EBF43400F5F0ECE5
:10053000F43400700AE582458345F0700122E4300E
:10054000E70F22EC20E71489828A838BF02230D1D6
:100550000AE4F582F583F5F074802274FFF582F5E4
:1005600083F5F0747F22B98003EA13B34010EA24C4
:1005700001FAE43BFBE43CFC50047C800582BC00B7
:100580000EBB000BBA0008E4F5F0F583F58222A259
:10059000D1E582138CF092F78B838A8222E4F58373
:1005A000F58275F080F4A2D11322E4F583F582750B
:1005B000F0C0747F227804EC7011E58224F8500AB0
:1005C000F582E4C9CACBFCD8EF22EC782005822062
:1005D000E713D5820122C3E933F9EA33FAEB33FB9F
:1005E000EC33FCD8EA158222AA82AB83A2F73392BD
:1005F000D16002D2F7F582ACF0E58124F9F8E6FD8E
:1006000008E6FE0886F008E6A2F73392D56002D22B
:10061000F7F583AFF02275820022FCABF0AA83A924
:1006200082749EF582C2D1EC30E716D2D1E9F4246F
:1006300001F9EAF43400FAEBF43400FBECF4340092
:10064000FC1205B5020566AA82AB83A2F73392D1EC
:100650006002D2F7F582ACF0226040F825825002A9
:1006600074FFF582E824F8501ECCCBCAF9E4CC2400
:10067000F85014CBCAF9E4CB24F8500BCAF9E4CAF9
:1006800024F8500379002224086010F8C3EC13FC0E
:10069000EB13FBEA13FAE913F9D8F122000000008A
:00000001FF
