:1000000002000E22000000000000000201CA7581FB
:1000100012120409E5826003020062780079007A16
:10002000007B007C007D00EC4D601C88828983E4AD
:1000300093A3A882A9838A828B83F0A3AA82AB832D
:100040001CBCFFE31D80E07582007583007C007D91
:1000500000EC4D600AE4F0A31CBCFFF51D80F21219
:1000600000031201EF80FEC28C74F055894401F543
:10007000897594FE759290D28CD2A9D2AF22AA82B1
:10008000C2EF8AEA30EFFD22AA82D2EA75E95FC2A6
:1000900094758201C00212007ED002EAC454F0FAC4
:1000A00074804AF58212007E740355EAFB7A00756B
:1000B0008255C002C00312007ED003D002ACEA7D9C
:1000C00000EC2AFAED3BFBD2948A828B8322AA822F
:1000D000AB831ABAFF011BEA4B70F722758200123C
:1000E000008885820B85830C7582011200888582C9
:1000F0000D85830EC3E50D950BE50E950C50077528
:100100000900750A6422750964750A002275820067
:1001100012008885820B85830C7582011200888508
:10012000820D85830EE50BC3950DF50FE50C950E3D
:10013000F510850F828510831202F1AA82AB83AC81
:10014000F0FDC002C003C004C00590000075F0803F
:10015000743E12023DAA82AB83ACF0FDE58124FC23
:10016000F5818A828B838CF0ED12020985821185DC
:100170008312C3E4950FE464808510F063F08095EA
:10018000F0501EC3E5119464E51264809480500918
:10019000AA117464C39AFA80027A008A09750A6403
:1001A00022C3E49511F511E49512F512750964C3A3
:1001B000E5119464E512648094805009AA11746476
:1001C000C39AFA80027A008A0A22C0E0C0D075D0B1
:1001D000000508E508249C5003750800C3E5089550
:1001E000099290C3E508950A9291D0D0D0E0329060
:1001F000FFFE1202E0120067750900750A00120086
:10020000DC9027101200CE80F51202FE700AE58203
:10021000458345F0700122E430D112F4700BE5F013
:10022000F47006E58330E7012290800022700AE531
:10023000F07006E58320E70122907FFF221203DBA6
:10024000BC000302037AEF60FA30D502B2D1E58335
:10025000B4FF03020390E582B4FF030203902583F9
:1002600040072482400B02037A24831450030203C4
:1002700090F582EA8DF0A4A8F0EA8EF0A428F8E4C4
:1002800035F0F9EB8DF0A428E935F0F9E433CA8FA5
:10029000F0A429F9EA35F0FAEBF88EF0A429F9EA8E
:1002A00035F0FAE433FBEC8DF0A429F9EA35F0FAE5
:1002B000E43BFBE88FF0A42AFAEB35F0FBE433CC07
:1002C000FD8EF0A42AFAEB35F0FBE43CFCED8FF058
:1002D000A42BFBEC35F0FC20E7031203A802035922
:1002E000AA82AB838B048CCB8ACA75C834759852AA
:1002F00022AC83AB827A007900748E020416120459
:100300003AC3749E95824039790012044C30D1264C
:10031000E9F42401F582EAF43400F583EBF43400C7
:10032000F5F0ECF43400700AE582458345F0700185
:1003300022E430E70F22EC20E71489828A838BF0D5
:100340002230D10AE4F582F583F5F074802274FF3F
:10035000F582F583F5F0747F22B98003EA13B34088
:1003600010EA2401FAE43BFBE43CFC50047C8005E9
:1003700082BC000EBB000BBA0008E4F5F0F583F573
:100380008222A2D1E582138CF092F78B838A82229B
:10039000E4F583F58275F080F4A2D11322E4F583AD
:1003A000F58275F0C0747F227804EC7011E5822428
:1003B000F8500AF582E4C9CACBFCD8EF22EC7820C9
:1003C000058220E713D5820122C3E933F9EA33FA23
:1003D000EB33FBEC33FCD8EA158222AA82AB83A272
:1003E000F73392D16002D2F7F582ACF0E58124F9BF
:1003F000F8E6FD08E6FE0886F008E6A2F73392D597
:100400006002D2F7F583AFF02275820022FCABF0D8
:10041000AA83A982749EF582C2D1EC30E716D2D1AC
:10042000E9F42401F9EAF43400FAEBF43400FBECCB
:10043000F43400FC1203A8020359AA82AB83A2F78A
:100440003392D16002D2F7F582ACF0226040F825F9
:1004500082500274FFF582E824F8501ECCCBCAF912
:10046000E4CC24F85014CBCAF9E4CB24F8500BCADE
:10047000F9E4CA24F8500379002224086010F8C374
:10048000EC13FCEB13FBEA13FAE913F9D8F12200A1
:00000001FF
