:1000000002000E220000000000000002010D7581B8
:100010000E12015DE5826003020062780079007AC9
:10002000007B007C007D00EC4D601C88828983E4AD
:1000300093A3A882A9838A828B83F0A3AA82AB832D
:100040001CBCFFE31D80E07582007583007C007D91
:1000500000EC4D600AE4F0A31CBCFFF51D80F21219
:10006000000312013280FEC28C74F055894401F500
:10007000897594FE759290D28CD2A9D2AF22AA82B1
:10008000C2EF8AEA30EFFD22AA82D2EA75E95FC2A6
:1000900094758201C00212007ED002EAC454F0FAC4
:1000A00074804AF58212007E740355EAFB7A00756B
:1000B0008255C002C00312007ED003D002ACEA7D9C
:1000C00000EC2AFAED3BFBD2948A828B8322AA822F
:1000D000AB831ABAFF011BEA4B70F722758200123C
:1000E000008885820B85830C7582011200888582C9
:1000F0000D85830EC3E50D950BE50E950C50077528
:100100000964750A0022750900750A6422C0E0C0FE
:10011000D075D0000508E508249C5003750800C37D
:10012000E50895099290C3E508950A92A0D0D0D031
:10013000E03290FFFE12014C120067750900750A4B
:10014000001200DC9027101200CE80F5AA82AB834B
:100150008B048CCB8ACA75C834759852227582007C
:10016000220000000000000000000000000000006D
:00000001FF
