:1000000002000E220000000000000002022775819D
:10001000141202B7E5826003020062780079007A68
:10002000007B007C007D00EC4D601C88828983E4AD
:1000300093A3A882A9838A828B83F0A3AA82AB832D
:100040001CBCFFE31D80E07582007583007C007D91
:1000500000EC4D600AE4F0A31CBCFFF51D80F21219
:10006000000312024C80FEC28C74F055894401F5E5
:10007000897594FE759290D28CD2A9D2AF22AA82B1
:10008000C2EF8AEA30EFFD22AA82D2EA75E95FC2A6
:1000900094758201C00212007ED002EAC454F0FAC4
:1000A00074804AF58212007E740355EAFB7A00756B
:1000B0008255C002C00312007ED003D002ACEA7D9C
:1000C00000EC2AFAED3BFBD2948A828B8322AA822F
:1000D000AB837C007D00C3EC9AED64808BF063F011
:1000E0008095F050147EE87F031EBEFF011FEE4F87
:1000F00070F70CBC00E00D80DD22758200120088D4
:1001000085820B85830C75820112008885820D859E
:10011000830EC3E50D950BE50E950C500775090090
:10012000750A6422750964750A0022AA827B007C24
:10013000007D007E00C3ED940AEE64809480502A16
:100140008A82C002C003C004C005C006120088AF86
:1001500082A883D006D005D004D003D002EF2BFBB9
:10016000E83CFC0DBD00CE0E80CB75130AE4F514FF
:100170008B828C8302026075820012012BE583C59D
:100180008225E0C58233C58225E0C58233F58375BB
:100190001303E4F51412026085820B85830C7582CB
:1001A0000112012B85820D85830EE50BC3950DF59C
:1001B0000FE50C950EF510E50F24ECF513E5103462
:1001C000FFF514900003120289858211858312C302
:1001D000E4950FE464808510F063F08095F0501E84
:1001E000C3E5119464E512648094805009AA1174E7
:1001F00064C39AFA80027A008A09750A6422C3E409
:100200009511F511E49512F512750964C3E5119481
:1002100064E512648094805009AA117464C39AFA48
:1002200080027A008A0A22C0E0C0D075D00005089A
:10023000E508249C5003750800C3E50895099290D1
:10024000C3E508950A9291D0D0D0E03290FFFE121B
:1002500002A6120067750900750A0012017780FB7B
:100260007A10E4FBFCE58225E0F582E58333F58333
:10027000EB33FBEC33FCEB9513F5F0EC95144006F7
:10028000FCABF0438201DADD22E5828513F0A4C5E0
:1002900082C0F08514F0A4D0F025F0C5838513F05A
:1002A000A42583F58322AA82AB838B048CCB8ACAD4
:1002B00075C8347598522275820022000000000033
:00000001FF
