:1000000002000E22000000000000000202247581A0
:1000100014120486E5826003020062780079007A97
:10002000007B007C007D00EC4D601C88828983E4AD
:1000300093A3A882A9838A828B83F0A3AA82AB832D
:100040001CBCFFE31D80E07582007583007C007D91
:1000500000EC4D600AE4F0A31CBCFFF51D80F21219
:10006000000312024980FEC28C74F055894401F5E8
:10007000897594FE759290D28CD2A9D2AF22AA82B1
:10008000C2EF8AEA30EFFD22AA82D2EA75E95FC2A6
:1000900094758201C00212007ED002EAC454F0FAC4
:1000A00074804AF58212007E740355EAFB7A00756B
:1000B0008255C002C00312007ED003D002ACEA7D9C
:1000C00000EC2AFAED3BFBD2948A828B8322AA822F
:1000D000AB837C007D00C3EC9AED64808BF063F011
:1000E0008095F050147EE87F031EBEFF011FEE4F87
:1000F00070F70CBC00E00D80DD22AA827B007C0042
:100100007D007E00C3ED940FEE64809480502A8AB7
:1001100082C002C003C004C005C006120088AF82BE
:10012000A883D006D005D004D003D002EF2BFBE883
:100130003CFC0DBD00CE0E80CB75130FE4F5148B87
:10014000828C830202917582001200FA85820B85EF
:10015000830C7582011200FA85820D85830EC374AB
:1001600080950BE4950C5011C37480950DE4950EA9
:100170005007750964750A6422E50BC3950DF50FE8
:10018000E50C950EF510E50F24ECF582E51034FF33
:10019000F58312036EAA82AB83ACF0FDC002C003EC
:1001A000C004C00590000075F06074401202BAAA45
:1001B00082AB83ACF0FDE58124FCF5818A828B83E0
:1001C0008CF0ED12025D858211858312C3E4950FD8
:1001D000E464808510F063F08095F0501EC3E51153
:1001E0009464E512648094805009AA117464C39ADF
:1001F000FA80027A008A09750A6422C3E49511F52F
:1002000011E49512F512750964C3E5119464E512C1
:10021000648094805009AA117464C39AFA80027AA7
:10022000008A0A22C0E0C0D075D0000508E5082485
:100230009C5003750800C3E50895099290C3E50832
:10024000950A9291D0D0D0E03290FFFE12035D1259
:100250000067750900750A0012014680FB12037BD6
:10026000700AE582458345F0700122E430D112F432
:10027000700BE5F0F47006E58330E7012290800012
:1002800022700AE5F07006E58320E70122907FFFE7
:10029000227A10E4FBFCE58225E0F582E58333F564
:1002A00083EB33FBEC33FCEB9513F5F0EC9514404A
:1002B00006FCABF0438201DADD22120458BC0003D5
:1002C0000203F7EF60FA30D502B2D1E583B4FF0341
:1002D00002040DE582B4FF0302040D2583400724C8
:1002E00082400B0203F7248314500302040DF582AD
:1002F000EA8DF0A4A8F0EA8EF0A428F8E435F0F92D
:10030000EB8DF0A428E935F0F9E433CA8FF0A42985
:10031000F9EA35F0FAEBF88EF0A429F9EA35F0FAAB
:10032000E433FBEC8DF0A429F9EA35F0FAE43BFB69
:10033000E88FF0A42AFAEB35F0FBE433CCFD8EF025
:10034000A42AFAEB35F0FBE43CFCED8FF0A42BFB88
:10035000EC35F0FC20E7031204250203D6AA82AB99
:10036000838B048CCB8ACA75C83475985222AC83AF
:10037000AB827A007900748E0204931204B7C374BE
:100380009E9582403979001204C930D126E9F424BF
:1003900001F582EAF43400F583EBF43400F5F0EC77
:1003A000F43400700AE582458345F0700122E430A0
:1003B000E70F22EC20E71489828A838BF02230D168
:1003C0000AE4F582F583F5F074802274FFF582F576
:1003D00083F5F0747F22B98003EA13B34010EA2456
:1003E00001FAE43BFBE43CFC50047C800582BC0049
:1003F0000EBB000BBA0008E4F5F0F583F58222A2EB
:10040000D1E582138CF092F78B838A8222E4F58304
:10041000F58275F080F4A2D11322E4F583F582759C
:10042000F0C0747F227804EC7011E58224F8500A41
:10043000F582E4C9CACBFCD8EF22EC7820058220F3
:10044000E713D5820122C3E933F9EA33FAEB33FB30
:10045000EC33FCD8EA158222AA82AB83A2F733924E
:10046000D16002D2F7F582ACF0E58124F9F8E6FD1F
:1004700008E6FE0886F008E6A2F73392D56002D2BD
:10048000F7F583AFF02275820022FCABF0AA83A9B6
:1004900082749EF582C2D1EC30E716D2D1E9F42401
:1004A00001F9EAF43400FAEBF43400FBECF4340024
:1004B000FC1204250203D6AA82AB83A2F73392D1A1
:1004C0006002D2F7F582ACF0226040F8258250023B
:1004D00074FFF582E824F8501ECCCBCAF9E4CC2492
:1004E000F85014CBCAF9E4CB24F8500BCAF9E4CA8B
:1004F00024F8500379002224086010F8C3EC13FCA0
:10050000EB13FBEA13FAE913F9D8F122000000001B
:00000001FF
